:100000000C9462000C948A000C948A000C948A0070
:100010000C948A000C948A000C948A000C948A0038
:100020000C948A000C948A000C948A000C948A0028
:100030000C948A000C948A000C948A000C948A0018
:100040000C9433060C948A000C94A3060C947D0641
:100050000C948A000C948A000C948A000C948A00F8
:100060000C948A000C948A000000000024002700F1
:100070002A0000000000250028002B0000000000DE
:1000800023002600290004040404040404040202DA
:100090000202020203030303030301020408102007
:1000A0004080010204081020010204081020000012
:1000B0000008000201000003040700000000000027
:1000C0000000F70B11241FBECFEFD8E0DEBFCDBF7D
:1000D00012E0A0E0B1E0E4EBF9E102C005900D927E
:1000E000A438B107D9F723E0A4E8B2E001C01D921B
:1000F000A73EB207E1F710E0C2E6D0E004C02197C6
:10010000FE010E94C90CC136D107C9F70E94D5066D
:100110000C94D80C0C940000833081F028F48130CA
:1001200099F08230A9F008958730A9F08830C9F09D
:100130008430B1F4809180008F7D03C08091800075
:100140008F7780938000089584B58F7784BD08955C
:1001500084B58F7DFBCF8091B0008F778093B00006
:1001600008958091B0008F7DF9CFCF93DF93282F32
:1001700030E0F901E255FF4F8491F901E656FF4F57
:10018000D491F901EA57FF4FC491CC23A1F081111A
:100190000E948C00EC2FF0E0EE0FFF1FE458FF4FA1
:1001A000A591B491EC91ED2381E090E009F480E019
:1001B000DF91CF91089580E090E0FACF1F93CF9325
:1001C000DF93282F30E0F901E255FF4F8491F901C8
:1001D000E656FF4FD491F901EA57FF4FC491CC2363
:1001E000A9F0162F81110E948C00EC2FF0E0EE0F89
:1001F000FF1FEE58FF4FA591B4918FB7F894EC9183
:10020000111108C0D095DE23DC938FBFDF91CF9111
:100210001F910895DE2BF8CFCF93DF9390E0FC0180
:10022000E656FF4F24918A579F4FFC018491882303
:10023000D1F090E0880F991FFC01E859FF4FA5917C
:10024000B491FC01EE58FF4FC591D49161110EC0DD
:100250009FB7F8948C91E22FE0958E238C932881A0
:10026000E223E8839FBFDF91CF9108958FB7F89481
:10027000EC91E22BEC938FBFF6CF1F93CF93DF93DC
:10028000182FEB0161E00E940C01209739F460E027
:10029000812FDF91CF911F910C94DE00CF3FD105CC
:1002A00011F461E0F5CFE12FF0E0E255FF4FE4916A
:1002B000E33031F140F4E130B1F0E230E1F0C03848
:1002C000D1057CF7E4CFE73029F1E83059F1E4308B
:1002D000B1F780918000806280938000D0938B0082
:1002E000C0938A0004C084B5806884BDC7BDDF9117
:1002F000CF911F91089584B5806284BDC8BDF7CFAA
:1003000080918000806880938000D0938900C093A2
:100310008800EDCF8091B00080688093B000C093DA
:10032000B300E5CF8091B00080628093B000C093AD
:10033000B400DDCF3FB7F894809146039091470316
:10034000A0914803B091490326B5A89B05C02F3F53
:1003500019F00196A11DB11D3FBFBA2FA92F982FEB
:100360008827BC01CD01620F711D811D911D42E0E6
:10037000660F771F881F991F4A95D1F708958F92AE
:100380009F92AF92BF92CF92DF92EF92FF924B017A
:100390005C010E949A016B017C010E949A016C1918
:1003A0007D098E099F09683E734081059105A8F378
:1003B00021E0821A9108A108B10888EEC80E83E0F6
:1003C000D81EE11CF11C81149104A104B10429F789
:1003D000FF90EF90DF90CF90BF90AF909F908F9065
:1003E00008952FB7F8946091420370914303809170
:1003F0004403909145032FBF0895AF92BF92CF92CF
:10040000DF92EF92FF920F931F93CF93DF936C01D4
:100410007B018B01040F151FEB015E01AE18BF08B5
:10042000C017D10759F06991D601ED91FC91019067
:10043000F081E02DC6010995892B79F7C501DF917F
:10044000CF911F910F91FF90EF90DF90CF90BF90D1
:10045000AF900895FC01538D448D252F30E0842FFB
:1004600090E0821B930B541710F0CF9608950197DC
:100470000895FC01918D828D981761F0A28DAE0FC9
:10048000BF2FB11D5D968C91928D9F5F9F73928F50
:1004900090E008958FEF9FEF0895FC01918D828D7C
:1004A000981731F0828DE80FF11D858D90E0089549
:1004B0008FEF9FEF0895FC01918D228D892F90E0A1
:1004C000805C9F4F821B91098F73992708958AE45E
:1004D00093E00E945B0221E0892B09F420E0822F47
:1004E000089580E090E0892B29F00E946702811135
:1004F0000C9400000895FC01A48DA80FB92FB11D24
:10050000A35ABF4F2C91848D90E001968F73992749
:10051000848FA689B7892C93A089B1898C91837027
:1005200080648C93938D848D981306C00288F38920
:10053000E02D80818F7D80830895EF92FF920F934D
:100540001F93CF93DF93EC0181E0888F9B8D8C8D7F
:1005500098131AC0E889F989808185FF15C09FB773
:10056000F894EE89FF896083E889F9898081837036
:10057000806480839FBF81E090E0DF91CF911F91E5
:100580000F91FF90EF900895F62E0B8D10E00F5F06
:100590001F4F0F731127E02E8C8D8E110CC00FB6DC
:1005A00007FCFACFE889F989808185FFF5CFCE0174
:1005B0000E947B02F1CFEB8DEC0FFD2FF11DE35A72
:1005C000FF4FF0829FB7F8940B8FEA89FB898081F7
:1005D0008062CFCFCF93DF93EC01888D8823B9F071
:1005E000AA89BB89E889F9898C9185FD03C080813E
:1005F00086FD0DC00FB607FCF7CF8C9185FFF2CFBB
:10060000808185FFEDCFCE010E947B02E9CFDF9193
:10061000CF910895282FFC0180E037E09E2F921B98
:10062000961760F49191892798E087FF05C0880F9D
:1006300083279150D1F7F2CF880FFBCF089570E058
:1006400060E089E00E943D0170E060E08AE00E9485
:100650003D0170E060E08BE00E943D01E3EEF2E0DE
:10066000128613861486158616861786089570E0FE
:1006700060E083E00E943D0170E060E085E00E9460
:100680003D0170E060E086E00E943D01E3EEF2E0B3
:100690001382148215821682178210860895CF93D2
:1006A000DF93D82FC62F70E060E089E00E943D0103
:1006B00070E060E08AE00E943D0170E060E08BE065
:1006C0000E943D011092ED021092EE021092EF0294
:1006D0001092F0021092F1021092F202D13089F0E1
:1006E00028F0D230C1F0DF91CF9108956C2F70E0E7
:1006F00089E00E943D0181E08093ED02C093EE020B
:10070000F2CF6C2F70E08AE00E943D01D093EF029F
:10071000C093F002E8CF6C2F70E08BE00E943D01A7
:1007200081E08093F102C093F202DDCFCF93DF939B
:10073000D82FC62F70E060E083E00E943D0170E09A
:1007400060E085E00E943D0170E060E086E00E948C
:100750003D011092E6021092E7021092E802109218
:10076000E9021092EA021092EB02D13089F028F0EF
:10077000D230C1F0DF91CF9108956C2F70E083E00B
:100780000E943D0181E08093E602C093E702F2CF30
:100790006C2F70E085E00E943D01D093E802C09389
:1007A000E902E8CF6C2F70E086E00E943D0181E015
:1007B0008093EA02C093EB02DDCF982F862F642F3F
:1007C0002FEF290F223030F4913011F40C9496035E
:1007D0000C944F030895FC0101900020E9F7319734
:1007E000AF01481B590BBC018AE493E00C94FD0156
:1007F0008F929F92AF92BF920F931F93CF93DF93ED
:10080000CDB7DEB7A1970FB6F894DEBF0FBECDBF50
:1008100019A2423008F44AE08E010F5D1F4F842E6A
:10082000912CB12CA12CA50194010E94690CE62FFA
:10083000B901CA01EA30F4F4E05DD801EE938D010C
:10084000232B242B252B79F790E080E0109719F0CB
:10085000CD010E94EB03A1960FB6F894DEBF0FBE48
:10086000CDBFDF91CF911F910F91BF90AF909F901F
:100870008F900895E95CE1CFCF92DF92EF92FF92E3
:10088000CF93DF936B017C016DE28AE493E00E94D9
:100890009D02EC0166277727CB016C197D098E0933
:1008A0009F094AE00E94F8038C0F9D1FDF91CF91B2
:1008B000FF90EF90DF90CF900895CF93DF930E9449
:1008C000EB03EC018EE191E00E94EB038C0F9D1F86
:1008D000DF91CF9108950C94EB03CF93DF93BC018C
:1008E000990F880B990B97FF0CC00E943C04EC01F8
:1008F0008EE191E00E94EB038C0F9D1FDF91CF9161
:1009000008954AE00E94F803F2CFBC01990F880BCA
:10091000990B97FD0C943C044AE00C94F803AF92B9
:10092000BF92CF92DF92EF92FF920F931F93CF93DC
:10093000DF935C018B01EA010E94F1016B017C01F4
:10094000AA94AB28F1F58091880290918902A09138
:100950008A02B0918B02A7019601281B390B4A0B22
:100960005B0BDA01C901803D9740A105B105F0F0AC
:1009700081E291E00E946B0481E090E00E94850496
:100980008AE291E00E946B04C8010E946B0484E239
:1009900091E00E946B04CE010E946D04C092880217
:1009A000D0928902E0928A02F0928B02DF91CF917D
:1009B0001F910F91FF90EF90DF90CF90BF90AF907D
:1009C00008958091840290918502A0918602B09151
:1009D0008702A7019601281B390B4A0B5B0BDA0132
:1009E000C901803D9740A105B10500F381E291E086
:1009F0000E946B0482E090E00E9485048AE291E00C
:100A00000E946B04C8010E946B0484E291E00E9482
:100A10006B04CE010E946D04C0928402D0928502C4
:100A2000E0928602F0928702C1CF4F925F926F925E
:100A30007F92AF92BF92CF92DF92EF92FF921F937D
:100A4000CF93DF9300D000D000D0CDB7DEB749837D
:100A50005A836B837C838D839E837901D82E192FD3
:100A6000872F0E94B5005C018D2D0E94B5006C019E
:100A70001E3008F01E501770106410937C00809197
:100A80007A00806480937A0080917A0086FDFCCFA2
:100A9000A0917800B09179002FEF30E00E94AE0C69
:100AA0002FEF33E040E050E00E944A0C2901AB28D0
:100AB00009F43FC0CD2809F052C0DA801B81B9018A
:100AC00089810E943D0170E060E08D2D0E943D0112
:100AD00070E060E0812F0E943D01A2016DE271E0B3
:100AE000C70126960FB6F894DEBF0FBECDBFDF91CB
:100AF000CF911F91FF90EF90DF90CF90BF90AF907C
:100B00007F906F905F904F900C948F0470E060E046
:100B10000E943D0170E060E0812F0E943D0170E085
:100B200060E08B2D0E943D0150E040E067E371E002
:100B3000D7CF89811A81BB80CD2841F370E060E076
:100B40000E943D01B201812F0E943D0170E060E0F2
:100B50008B2D0E943D01A20161E371E0C1CF269679
:100B60000FB6F894DEBF0FBECDBFDF91CF911F91BE
:100B7000FF90EF90DF90CF90BF90AF907F906F90FD
:100B80005F904F9008951F93CF93DF93142FE90147
:100B90009AEA988395E599838A834B8350E0C9014B
:100BA00004960E94CF0C62E0610FCE0102960E9473
:100BB0000A0394E0910FC90FD11D888385E0810F4E
:100BC000DF91CF911F910895CF93DF93CDB7DEB71B
:100BD0002A970FB6F894DEBF0FBECDBF89876A870C
:100BE0009E012F5F3F4F42E0BE01675F7F4F81E470
:100BF0000E94C305482F50E0BE016F5F7F4F8AE41B
:100C000093E00E94FD012A960FB6F894DEBF0FBE56
:100C1000CDBFDF91CF910895CF93DF93CDB7DEB7EE
:100C200029970FB6F894DEBF0FBECDBF89879E010E
:100C30002F5F3F4F41E0BE01675F7F4F80E40E941E
:100C4000C305482F50E0BE016F5F7F4F8AE493E0F9
:100C50000E94FD0129960FB6F894DEBF0FBECDBFEE
:100C6000DF91CF9108951F920F920FB60F9211242A
:100C70002F933F938F939F93AF93BF9380914203A2
:100C800090914303A0914403B091450330914103F7
:100C900023E0230F2D3758F50196A11DB11D209398
:100CA00041038093420390934303A0934403B09382
:100CB00045038091460390914703A0914803B0916A
:100CC00049030196A11DB11D8093460390934703EC
:100CD000A0934803B0934903BF91AF919F918F9127
:100CE0003F912F910F900FBE0F901F90189526E8FF
:100CF000230F0296A11DB11DD2CF1F920F920FB6E6
:100D00000F9211242F933F934F935F936F937F9391
:100D10008F939F93AF93BF93EF93FF938AE493E0F6
:100D20000E947B02FF91EF91BF91AF919F918F91B4
:100D30007F916F915F914F913F912F910F900FBED7
:100D40000F901F9018951F920F920FB60F921124BB
:100D50002F938F939F93EF93FF93E0915A03F0911A
:100D60005B038081E0916003F091610382FD1BC011
:100D70009081809163038F5F8F732091640382174A
:100D800041F0E0916303F0E0E65BFC4F958F8093C8
:100D90006303FF91EF919F918F912F910F900FBE61
:100DA0000F901F9018958081F4CFCF93DF93CDB72C
:100DB000DEB7C058D1090FB6F894DEBF0FBECDBF65
:100DC000789484B5826084BD84B5816084BD85B526
:100DD000826085BD85B5816085BD80916E00816032
:100DE00080936E00109281008091810082608093D8
:100DF00081008091810081608093810080918000DA
:100E00008160809380008091B10084608093B10004
:100E10008091B00081608093B00080917A008460FE
:100E200080937A0080917A00826080937A0080912A
:100E30007A00816080937A0080917A008068809344
:100E40007A001092C100E0915A03F0915B0312E026
:100E50001083E0915603F09157031082E0915803FC
:100E6000F091590380E1808310926203E0915E0368
:100E7000F0915F0386E08083E0915C03F0915D0375
:100E8000808180618083E0915C03F0915D038081CB
:100E900088608083E0915C03F0915D0380818068CD
:100EA0008083E0915C03F0915D0380818F7D80837E
:100EB0008BE391E00E945D0480E292E00E945D0479
:100EC00061E083E00E940C0161E085E00E940C017A
:100ED00061E086E00E940C0161E089E00E940C0163
:100EE00061E08AE00E940C0161E08BE00E940C014D
:100EF00060E082E00E940C0160E084E00E940C014E
:100F000060E087E00E940C0160E088E00E940C0134
:100F100060E08FE00E940C0160E08EE00E940C0116
:100F200060E080E10E940C01E3EEF2E08BE1DF0182
:100F30001D928A95E9F701E00093FD020E94F101FC
:100F40006093F8027093F9028093FA029093FB0287
:100F50000093E5021092E6021092E7021092E80276
:100F60001092E9021092EA021092EB021093EC0246
:100F70001092ED021092EE021092EF021092F00227
:100F80001092F1021092F2021092F3021092F40207
:100F90001092F5021092F6021092F7021092E202FD
:100FA000109291021092900210928C0210928D0277
:100FB00010928E0210928F0210923E0310923F0305
:100FC00087E591E00E945D048CE691E00E945D045B
:100FD00087E891E00E945D0480E10E94B50021E075
:100FE000009709F420E020934003892B09F40DC1F8
:100FF00081E08093FC0280EA91E00E945D0483EB33
:1010000091E00E945D0481ED91E00E945D0480E228
:1010100092E00E945D045AE0E52EF12C61E4A62ED8
:10102000B12CAC0EBD1EB3E0AB0EB11C8824839472
:10103000912C38E0332E40E0C42E40E0D42E80E1E5
:101040000E94B5003C0111E0892B09F410E0809169
:101050004003181709F440C070E060E083E00E948C
:101060003D0170E060E085E00E943D0170E060E0DD
:1010700086E00E943D0170E060E089E00E943D0151
:1010800070E060E08AE00E943D0170E060E08BE08B
:101090000E943D0110934003672809F4C1C081E01C
:1010A0008093FC020E94F1016093F8027093F902B0
:1010B0008093FA029093FB028EE192E00E945D041D
:1010C00089E392E00E945D0481ED91E00E945D045D
:1010D00080E292E00E945D0480914003882309F43D
:1010E0005DC38091FD02882339F18091FC02882341
:1010F00019F10E94F1014090F8025090F9026090BD
:10110000FA027090FB026419750986099709613328
:1011100075478105910580F00E9437030E941F03E7
:1011200082E090E09093E4028093E3021092FC024C
:1011300084E592E00E945D048091F302813009F021
:1011400048C01091E202112309F443C00E94F1014A
:10115000A091910240908C0250908D0260908E027E
:1011600070908F029B01AC0124193509460957097B
:1011700029013A0135E0A39FF0011124EE56FD4FFD
:101180004381548170E060E0441655066606770698
:1011900000F181E08A0F80939102811708F451C019
:1011A00080919002109291028F5F809390029091B3
:1011B000F702992309F445C0891708F442C0109238
:1011C000F3020E9437030E941F031092E402109260
:1011D000E3028AE493E00E945B02892B09F4CCC20B
:1011E0008AE493E00E94390260903F0361106EC070
:1011F0008A3A09F05AC090913E03911164C091E07F
:1012000090933E038093FE02E4CF80EA91E00E9437
:101210005D0489EE91E00E945D0487E092E0F5CEE6
:101220001092FC021092E4021092E3028EE192E02E
:101230000E945D0486E492E00E945D0487E092E0F3
:1012400045CF0E94F10160938C0270938D028093D0
:101250008E0290938F021091910245E0149FF0014D
:101260001124EE56FD4F818190818F3F89F491309A
:1012700051F40E9437031F5F1093F4028091900293
:101280008093F602A6CF9230B1F70E941F03F3CFEE
:101290002FEF290F223078F76281913019F40E94E4
:1012A0009603E9CF0E944F03E6CF853561F4909114
:1012B0003E03913041F422E020933E038093FF02ED
:1012C00090933F0386CF10923E0383CFE0913E037D
:1012D00011E01E0F10933E03F0E0E250FD4F8083BB
:1012E000143008F4C7C00091010385E0800F18177F
:1012F00008F4C0C062E0600F80E093E00E940A033F
:10130000E02FF0E0E250FD4F9481891331C2143098
:1013100009F4ACC0109100038091FC02811103C05C
:1013200081E08093FC020E94F1016093F8027093C7
:10133000F9028093FA029093FB02173109F410C16D
:1013400008F5123109F4B2C048F4103109F47EC036
:10135000113109F499C062E0812F11C0153109F4EF
:10136000C9C008F0D1C01431B1F763E0053031F4E1
:101370008091E202803108F49FC067E084E10E941E
:10138000E40574C0103209F430C170F5193109F464
:1013900009C108F4F7C01A31F1F663E08AE10130BF
:1013A00071F780910203813009F012C19091E60239
:1013B000913059F09091E802913039F066246394AD
:1013C0009091EA02913009F0612C9091ED029130F8
:1013D00049F09091EF02913029F09091F102913013
:1013E00009F001C28AE140C0123209F49FC108F439
:1013F0003BC1103509F0AFCF63E080E5023009F062
:10140000BECF81E090910303911101C080E08093F1
:10141000FD020E94F1016093F8027093F90280933B
:10142000FA029093FB028091020322968FAF2297DB
:101430008091FD0223968FAF23979E012F5F3F4F30
:1014400042E0BE016F5B7F4F80E502C163E080E157
:10145000033009F094CF409104036091030380911D
:1014600002030E94DD0380E10E940C0610923E03FD
:1014700010923F0380913E03803408F4AACE10926C
:101480003E0310923F03A5CE63E081E1013009F0F5
:1014900076CF80910203813021F40E94370381E1ED
:1014A000E3CF8230E1F70E941F03F9CF0E94370398
:1014B0000E941F0382E1D8CF089FF0011124EE564D
:1014C000FD4F90910203908390910303918390913B
:1014D00004039283209105033091060332272327CA
:1014E0003227348323838F5F8093E2028093F50257
:1014F00084E1BACF1092E20210929102109290020F
:101500001092F50285E1B0CF63E0013029F48091BB
:10151000E202811103C067E086E131CF10929102AF
:10152000109290020E94F10160938C0270938D02E0
:1015300080938E0290938F020093F30280910203B6
:101540008093F7029092E4028092E3024091940229
:1015500060919302809192020E94DD0386E184CF24
:101560001092F3020E9437030E941F031092E202BE
:1015700010929102109290021092E4021092E302F3
:1015800087E172CF8091F302813049F482E0809349
:10159000F3020E9437030E941F0388E165CF68E0D1
:1015A00088E1EDCE8091F302823079F481E080937E
:1015B000F3020E94F10160938C0270938D0280937C
:1015C0008E0290938F0289E14FCF68E089E1D7CEF8
:1015D000811105C09091F302913009F403CF90E09E
:1015E0009093E4028093E302FDCE87E792E00E94AD
:1015F000240CB7010E949A0C94E0660F771F9A950D
:10160000E1F7682B22966FAF229787E792E00E945E
:10161000240CB7010E949A0C24E0660F771F2A95CC
:10162000E1F7682B23966FAF239724963FAE24975C
:10163000EAE7F2E0D501832D01900D928A95E1F75A
:101640009E012F5F3F4F4BE0BE016F5B7F4F80E3FA
:101650000E94C305482F50E0BE016F5F7F4F8AE4B0
:1016600093E00E94FD0102CF8091E30222968FAFAA
:1016700022978091E6029091E702813039F08091C3
:10168000E8028130E9F59091E90282E02091E502DB
:1016900023962FAF239724968FAF249721E08111B3
:1016A00001C020E025962FAF259726969FAF26975D
:1016B0008091ED029091EE02813039F08091EF023D
:1016C000813049F59091F00282E02091EC0227965A
:1016D0002FAF279728968FAF289721E0811101C05F
:1016E00020E029962FAF29972A969FAF2A979E012F
:1016F0002F5F3F4F49E0BE016F5B7F4F81E3A8CF73
:101700008091EA02813021F49091EB0283E0BECF18
:1017100090E080E0BBCF8091F102813021F4909184
:10172000F20283E0D2CF90E080E0CFCF8091F3024D
:1017300022968FAF22978091F40223968FAF239742
:101740008091F50224968FAF24978091F60225961A
:101750008FAF25978091F70226968FAF26979E012F
:101760002F5F3F4F45E0BE016F5B7F4F82E370CF3D
:1017700061E08091000303CE6AE070E080E090E0D9
:101780000E94BF01C114D10409F459CC0E94670220
:10179000882309F44ECC0E9400004BCC21E030E0BD
:1017A000409118015091190160911A0170911B012B
:1017B00080911C0190911D010E94150522E030E0EE
:1017C0004091120150911301609114017091150123
:1017D00080911601909117010E94150562E370E057
:1017E00080E090E0CDCF662009F4F9CEFBCDEAE4AD
:1017F000F3E01382128288EE93E0A0E0B0E08483ED
:101800009583A683B78384E091E09183808385EC00
:1018100090E09587848784EC90E09787868780ECBA
:1018200090E0918B808B81EC90E0938B828B82ECAB
:1018300090E0958B848B86EC90E0978B868B118E55
:10184000128E138E148E0895FC0188279927E89430
:1018500021912032E9F3293010F02E30C8F32B32D9
:1018600041F02D3239F4689404C00E94420C820F7A
:10187000911D219120532A30C0F31EF4909581953B
:101880009F4F08957AE0979F902D879F802D910D0F
:1018900011240895052E97FB1EF400940E94610CFC
:1018A00057FD07D00E94690C07FC03D04EF40C943E
:1018B000610C50954095309521953F4F4F4F5F4FAC
:1018C000089590958095709561957F4F8F4F9F4FAC
:1018D0000895A1E21A2EAA1BBB1BFD010DC0AA1F71
:1018E000BB1FEE1FFF1FA217B307E407F50720F089
:1018F000A21BB30BE40BF50B661F771F881F991F04
:101900001A9469F760957095809590959B01AC014C
:10191000BD01CF010895A29FB001B39FC001A39F55
:10192000700D811D1124911DB29F700D811D112418
:10193000911D089597FB072E16F4009407D077FDAC
:1019400009D00E94B50C07FC05D03EF49095819516
:101950009F4F0895709561957F4F08950E948B0C5D
:10196000B7FF0895821B930B0895AA1BBB1B51E17F
:1019700007C0AA1FBB1FA617B70710F0A61BB70BFF
:10198000881F991F5A95A9F780959095BC01CD01A4
:101990000895EE0FFF1F0590F491E02D0994FB01CF
:1019A000DC0102C001900D9241505040D8F70895DB
:0419B000F894FFCFD9
:1019B400000000009D02FD012A02EA025B023902D6
:1019C4004D02090A0B07080E03050602040F0D0A4F
:1019D40000434800207C2050574D3A200041495292
:1019E400005741544552004F4646000D0A466C7557
:1019F400696420436F6E74726F6C205379737465DD
:101A04006D2056312E300050726F746F636F6C20EE
:101A1400696E697469616C697A656400436F6D6DA0
:101A2400616E64206D6F64756C6520696E6974699C
:101A3400616C697A6564004F66666C696E65206DD9
:101A44006F646520696E697469616C697A656400A4
:101A540053797374656D20696E697469616C697A10
:101A64006564004D6F64653A204F4E4C494E4520E5
:101A74002853776974636820697320484947482963
:101A84000057616974696E6720666F7220636F6DB9
:101A94006D616E64732E2E2E004D6F64653A204F77
:101AA40046464C494E45202853776974636820693B
:101AB40073204C4F5729004D616E75616C20636F24
:101AC4006E74726F6C20656E61626C6564000D0AE1
:101AD4003D3D3D3D3D3D3D3D3D3D3D3D3D3D3D3D32
:101AE4003D3D3D3D3D3D3D3D004D6F64653A204FDC
:101AF4004E4C494E45004D6F64653A204F46464C66
:101B0400494E450048656172746265617420746968
:101B14006D656F75742120456D657267656E6379B7
:101B24002073746F702100313000666C7569645FD6
:041B34005630000027
:00000001FF
