:100000000C9462000C948A000C948A000C948A0070
:100010000C948A000C948A000C948A000C948A0038
:100020000C948A000C948A000C948A000C948A0028
:100030000C948A000C948A000C948A000C948A0018
:100040000C942E060C948A000C949E060C94780650
:100050000C948A000C948A000C948A000C948A00F8
:100060000C948A000C948A000000000024002700F1
:100070002A0000000000250028002B0000000000DE
:1000800023002600290004040404040404040202DA
:100090000202020203030303030301020408102007
:1000A0004080010204081020010204081020000012
:1000B0000008000201000003040700000000000027
:1000C0000000400D11241FBECFEFD8E0DEBFCDBF32
:1000D00012E0A0E0B1E0E6E4FCE102C005900D9280
:1000E000A438B107D9F724E0A4E8B2E001C01D921A
:1000F000A534B207E1F710E0C2E6D0E004C02197D2
:10010000FE010E94120EC136D107C9F70E94D00627
:100110000C94210E0C940000833081F028F481307F
:1001200099F08230A9F008958730A9F08830C9F09D
:100130008430B1F4809180008F7D03C08091800075
:100140008F7780938000089584B58F7784BD08955C
:1001500084B58F7DFBCF8091B0008F778093B00006
:1001600008958091B0008F7DF9CFCF93DF93282F32
:1001700030E0F901E255FF4F8491F901E656FF4F57
:10018000D491F901EA57FF4FC491CC23A1F081111A
:100190000E948C00EC2FF0E0EE0FFF1FE458FF4FA1
:1001A000A591B491EC91ED2381E090E009F480E019
:1001B000DF91CF91089580E090E0FACF1F93CF9325
:1001C000DF93282F30E0F901E255FF4F8491F901C8
:1001D000E656FF4FD491F901EA57FF4FC491CC2363
:1001E000A9F0162F81110E948C00EC2FF0E0EE0F89
:1001F000FF1FEE58FF4FA591B4918FB7F894EC9183
:10020000111108C0D095DE23DC938FBFDF91CF9111
:100210001F910895DE2BF8CFCF93DF9390E0FC0180
:10022000E656FF4F24918A579F4FFC018491882303
:10023000D1F090E0880F991FFC01E859FF4FA5917C
:10024000B491FC01EE58FF4FC591D49161110EC0DD
:100250009FB7F8948C91E22FE0958E238C932881A0
:10026000E223E8839FBFDF91CF9108958FB7F89481
:10027000EC91E22BEC938FBFF6CF1F93CF93DF93DC
:10028000182FEB0161E00E940C01209739F460E027
:10029000812FDF91CF911F910C94DE00CF3FD105CC
:1002A00011F461E0F5CFE12FF0E0E255FF4FE4916A
:1002B000E33031F140F4E130B1F0E230E1F0C03848
:1002C000D1057CF7E4CFE73029F1E83059F1E4308B
:1002D000B1F780918000806280938000D0938B0082
:1002E000C0938A0004C084B5806884BDC7BDDF9117
:1002F000CF911F91089584B5806284BDC8BDF7CFAA
:1003000080918000806880938000D0938900C093A2
:100310008800EDCF8091B00080688093B000C093DA
:10032000B300E5CF8091B00080628093B000C093AD
:10033000B400DDCF3FB7F8948091A4039091A5035A
:10034000A091A603B091A70326B5A89B05C02F3F97
:1003500019F00196A11DB11D3FBFBA2FA92F982FEB
:100360008827BC01CD01620F711D811D911D42E0E6
:10037000660F771F881F991F4A95D1F708958F92AE
:100380009F92AF92BF92CF92DF92EF92FF924B017A
:100390005C010E949A016B017C010E949A016C1918
:1003A0007D098E099F09683E734081059105A8F378
:1003B00021E0821A9108A108B10888EEC80E83E0F6
:1003C000D81EE11CF11C81149104A104B10429F789
:1003D000FF90EF90DF90CF90BF90AF909F908F9065
:1003E00008952FB7F8946091A0037091A1038091B4
:1003F000A2039091A3032FBF0895AF92BF92CF9213
:10040000DF92EF92FF920F931F93CF93DF936C01D4
:100410007B018B01040F151FEB015E01AE18BF08B5
:10042000C017D10759F06991D601ED91FC91019067
:10043000F081E02DC6010995892B79F7C501DF917F
:10044000CF911F910F91FF90EF90DF90CF90BF90D1
:10045000AF900895FC01538D448D252F30E0842FFB
:1004600090E0821B930B541710F0CF9608950197DC
:100470000895FC01918D828D981761F0A28DAE0FC9
:10048000BF2FB11D5D968C91928D9F5F9F73928F50
:1004900090E008958FEF9FEF0895FC01918D828D7C
:1004A000981731F0828DE80FF11D858D90E0089549
:1004B0008FEF9FEF0895FC01918D228D892F90E0A1
:1004C000805C9F4F821B91098F739927089588EA5A
:1004D00093E00E945B0221E0892B09F420E0822F47
:1004E000089580E090E0892B29F00E946702811135
:1004F0000C9400000895FC01A48DA80FB92FB11D24
:10050000A35ABF4F2C91848D90E001968F73992749
:10051000848FA689B7892C93A089B1898C91837027
:1005200080648C93938D848D981306C00288F38920
:10053000E02D80818F7D80830895EF92FF920F934D
:100540001F93CF93DF93EC0181E0888F9B8D8C8D7F
:1005500098131AC0E889F989808185FF15C09FB773
:10056000F894EE89FF896083E889F9898081837036
:10057000806480839FBF81E090E0DF91CF911F91E5
:100580000F91FF90EF900895F62E0B8D10E00F5F06
:100590001F4F0F731127E02E8C8D8E110CC00FB6DC
:1005A00007FCFACFE889F989808185FFF5CFCE0174
:1005B0000E947B02F1CFEB8DEC0FFD2FF11DE35A72
:1005C000FF4FF0829FB7F8940B8FEA89FB898081F7
:1005D0008062CFCFCF93DF93EC01888D8823B9F071
:1005E000AA89BB89E889F9898C9185FD03C080813E
:1005F00086FD0DC00FB607FCF7CF8C9185FFF2CFBB
:10060000808185FFEDCFCE010E947B02E9CFDF9193
:10061000CF910895282FFC0180E037E09E2F921B98
:10062000961760F49191892798E087FF05C0880F9D
:1006300083279150D1F7F2CF880FFBCF08951F93F6
:10064000CF93DF939FEF980F923030F5C42FD62FC2
:10065000182F70E060E0813009F040C083E00E9414
:100660003D0170E060E085E00E943D0170E060E0E7
:1006700086E00E943D0110923F03109240031092C9
:100680004103109242031092430310924403D1306D
:1006900089F030F0D230C1F0DF91CF911F910895F1
:1006A0006C2F70E083E00E943D0110933F03C093E4
:1006B0004003F2CF6C2F70E085E00E943D01D093A3
:1006C0004103C0934203E8CF6C2F70E086E00E94A4
:1006D0003D0110934303C0934403DECF89E00E94A1
:1006E0003D0170E060E08AE00E943D0170E060E062
:1006F0008BE00E943D011092460310924703109236
:1007000048031092490310924A0310924B03D130D0
:10071000D1F070F0D23009F0BFCF6C2F70E08BE0D9
:100720000E943D0181E080934A03C0934B03B4CF04
:100730006C2F70E089E00E943D0181E080934603C8
:10074000C0934703A9CF6C2F70E08AE00E943D015F
:10075000D0934803C09349039FCF70E060E089E0E5
:100760000E943D0170E060E08AE00E943D0170E07F
:1007700060E08BE00E943D01ECE3F3E0128613861B
:100780001486158616861786089570E060E083E06B
:100790000E943D0170E060E085E00E943D0170E054
:1007A00060E086E00E943D01ECE3F3E013821482F6
:1007B00015821682178210860895813011F40C94E8
:1007C000C503823011F40C94AD030895FC0101902F
:1007D0000020E9F73197AF01481B590BBC0188EAAB
:1007E00093E00C94FD018F929F92AF92BF920F9372
:1007F0001F93CF93DF93CDB7DEB7A1970FB6F894D1
:10080000DEBF0FBECDBF19A2423008F44AE08E0110
:100810000F5D1F4F842E912CB12CA12CA5019401AA
:100820000E94B20DE62FB901CA01EA30F4F4E05D8E
:10083000D801EE938D01232B242B252B79F790E003
:1008400080E0109719F0CD010E94E603A1960FB643
:10085000F894DEBF0FBECDBFDF91CF911F910F91F6
:10086000BF90AF909F908F900895E95CE1CFCF92B9
:10087000DF92EF92FF92CF93DF936B017C016DE2E9
:1008800088EA93E00E949D02EC0166277727CB015E
:100890006C197D098E099F094AE00E94F3038C0FB1
:1008A0009D1FDF91CF91FF90EF90DF90CF90089543
:1008B000CF93DF930E94E603EC018EE191E00E946A
:1008C000E6038C0F9D1FDF91CF9108950C94E603F2
:1008D000CF93DF93BC01990F880B990B97FF0CC046
:1008E0000E943704EC018EE191E00E94E6038C0F38
:1008F0009D1FDF91CF9108954AE00E94F303F2CF4C
:10090000BC01990F880B990B97FD0C9437044AE0B2
:100910000C94F303AF92BF92CF92DF92EF92FF92CB
:100920000F931F93CF93DF935C018B01EA010E9429
:10093000F1016B017C01AA94AB28F1F5809188024A
:1009400090918902A0918A02B0918B02A701960131
:10095000281B390B4A0B5B0BDA01C901803D97401C
:10096000A105B105F0F081E291E00E94660481E00A
:1009700090E00E9480048AE291E00E946604C8012F
:100980000E94660484E291E00E946604CE010E9407
:100990006804C0928802D0928902E0928A02F092A2
:1009A0008B02DF91CF911F910F91FF90EF90DF901D
:1009B000CF90BF90AF90089580918402909185026E
:1009C000A0918602B0918702A7019601281B390BDE
:1009D0004A0B5B0BDA01C901803D9740A105B105C7
:1009E00000F381E291E00E94660482E090E00E94C0
:1009F00080048AE291E00E946604C8010E946604B5
:100A000084E291E00E946604CE010E946804C092D4
:100A10008402D0928502E0928602F0928702C1CFD2
:100A20004F925F926F927F92AF92BF92CF92DF927E
:100A3000EF92FF921F93CF93DF9300D000D000D0AE
:100A4000CDB7DEB749835A836B837C838D839E83C6
:100A50007901D82E192F872F0E94B5005C018D2DAA
:100A60000E94B5006C011E3008F01E501770106413
:100A700010937C0080917A00806480937A0080914A
:100A80007A0086FDFCCFA0917800B09179002FEF1D
:100A900030E00E94F70D2FEF33E040E050E00E947D
:100AA000930D2901AB2809F43FC0CD2809F052C0AD
:100AB000DA801B81B90189810E943D0170E060E00C
:100AC0008D2D0E943D0170E060E0812F0E943D016C
:100AD000A2016DE271E0C70126960FB6F894DEBF61
:100AE0000FBECDBFDF91CF911F91FF90EF90DF90B0
:100AF000CF90BF90AF907F906F905F904F900C948D
:100B00008A0470E060E00E943D0170E060E0812FA7
:100B10000E943D0170E060E08B2D0E943D0150E09D
:100B200040E067E371E0D7CF89811A81BB80CD288F
:100B300041F370E060E00E943D01B201812F0E940C
:100B40003D0170E060E08B2D0E943D01A20161E358
:100B500071E0C1CF26960FB6F894DEBF0FBECDBFB1
:100B6000DF91CF911F91FF90EF90DF90CF90BF90DA
:100B7000AF907F906F905F904F9008951F93CF93A9
:100B8000DF93142FE9019AEA988395E599838A8384
:100B90004B8350E0C90104960E94180E62E0610F79
:100BA000CE0102960E940A0394E0910FC90FD11D55
:100BB000888385E0810FDF91CF911F910895CF93B6
:100BC000DF93CDB7DEB72A970FB6F894DEBF0FBE1E
:100BD000CDBF89876A879E012F5F3F4F42E0BE01EC
:100BE000675F7F4F81E40E94BE05482F50E0BE0141
:100BF0006F5F7F4F88EA93E00E94FD012A960FB64F
:100C0000F894DEBF0FBECDBFDF91CF910895CF9393
:100C1000DF93CDB7DEB729970FB6F894DEBF0FBECE
:100C2000CDBF89879E012F5F3F4F41E0BE01675FC7
:100C30007F4F80E40E94BE05482F50E0BE016F5FE9
:100C40007F4F88EA93E00E94FD0129960FB6F89441
:100C5000DEBF0FBECDBFDF91CF9108951F920F92DF
:100C60000FB60F9211242F933F938F939F93AF93BF
:100C7000BF938091A0039091A103A091A203B09192
:100C8000A30330919F0323E0230F2D3758F50196DE
:100C9000A11DB11D20939F038093A0039093A103F6
:100CA000A093A203B093A3038091A4039091A50302
:100CB000A091A603B091A7030196A11DB11D809339
:100CC000A4039093A503A093A603B093A703BF9199
:100CD000AF919F918F913F912F910F900FBE0F90E9
:100CE0001F90189526E8230F0296A11DB11DD2CFA3
:100CF0001F920F920FB60F9211242F933F934F9391
:100D00005F936F937F938F939F93AF93BF93EF9373
:100D1000FF9388EA93E00E947B02FF91EF91BF91DD
:100D2000AF919F918F917F916F915F914F913F9183
:100D30002F910F900FBE0F901F9018951F920F923A
:100D40000FB60F9211242F938F939F93EF93FF93DE
:100D5000E091B803F091B9038081E091BE03F09176
:100D6000BF0382FD1BC090818091C1038F5F8F7391
:100D70002091C203821741F0E091C103F0E0E855F1
:100D8000FC4F958F8093C103FF91EF919F918F91BD
:100D90002F910F900FBE0F901F9018958081F4CF68
:100DA000CF93DF93CDB7DEB7C058D1090FB6F89413
:100DB000DEBF0FBECDBF789484B5826084BD84B59C
:100DC000816084BD85B5826085BD85B5816085BD46
:100DD00080916E00816080936E00109281008091FE
:100DE0008100826080938100809181008160809386
:100DF0008100809180008160809380008091B100AB
:100E000084608093B1008091B00081608093B000D5
:100E100080917A00846080937A0080917A00826069
:100E200080937A0080917A00816080937A0080912B
:100E30007A00806880937A001092C100E091B80334
:100E4000F091B90312E01083E091B403F091B5037F
:100E50001082E091B603F091B70380E18083109295
:100E6000C003E091BC03F091BD0386E08083E09174
:100E7000BA03F091BB03808180618083E091BA0363
:100E8000F091BB03808188608083E091BA03F09188
:100E9000BB03808180688083E091BA03F091BB033B
:100EA00080818F7D80838BE391E00E94580480E2F3
:100EB00092E00E94580461E083E00E940C0161E02E
:100EC00085E00E940C0161E086E00E940C0161E077
:100ED00089E00E940C0161E08AE00E940C0161E05F
:100EE0008BE00E940C0160E082E00E940C0160E057
:100EF00084E00E940C0160E087E00E940C0160E049
:100F000088E00E940C0160E08FE00E940C0160E02C
:100F10008EE00E940C0160E080E10E940C01ECE395
:100F2000F3E080E2DF011D928A95E9F701E000938A
:100F30005B030E94F1016093560370935703809303
:100F400058039093590300933E0310923F0310926D
:100F500040031092410310924203109243031092F7
:100F600044031093450310924603109247031092D6
:100F700048031092490310924A0310924B031092B7
:100F80004C0310924D0310924E0310924F03109297
:100F90005003109251031092520310925303109277
:100FA00054031092550310923B0310923903109290
:100FB00037031092900210929102109292021092B6
:100FC000930210923A031092380310923603109253
:100FD0008C0210928D0210928E0210928F0210924B
:100FE00035031092340310929C0310929D0387E501
:100FF00091E00E9458048CE691E00E94580487E832
:1010000091E00E94580480E10E94B50021E0009721
:1010100009F420E020939E03892B09F44EC181E05E
:1010200080935A0380EA91E00E94580483EB91E098
:101030000E94580481ED91E00E94580480E292E001
:101040000E9458046AE0E62EF12C71E4A72EB12C20
:10105000AC0EBD1EB3E0AB0EB11C88248394912C62
:1010600048E0742E50E0C52E50E0D52E80E10E945D
:10107000B5008C0166246394892B09F4612C80915E
:101080009E03681609F440C070E060E083E00E94AF
:101090003D0170E060E085E00E943D0170E060E0AD
:1010A00086E00E943D0170E060E089E00E943D0121
:1010B00070E060E08AE00E943D0170E060E08BE05B
:1010C0000E943D0160929E03012B09F401C181E061
:1010D00080935A030E94F101609356037093570363
:1010E00080935803909359038EE192E00E94580434
:1010F00089E392E00E94580481ED91E00E94580437
:1011000080E292E00E94580410919E03112309F49A
:1011100069C480915B03882339F180915A03882345
:1011200019F10E94F101209156033091570340912B
:10113000580350915903621B730B840B950B613359
:1011400075478105910580F00E94C5030E94AD039B
:1011500082E090E090933D0380933C0310925A0309
:1011600084E592E00E94580480913C0390913D03F5
:10117000019709F067C480913503882329F011E0B5
:1011800080914C03811110E080913403882309F48D
:101190004EC480915103882309F449C40E94F1018F
:1011A00020914C03213009F03FC0A0913B03AA23BA
:1011B000D9F1B091390300919002109191022091E0
:1011C0009202309193021B012C01201A310A420A2B
:1011D000530A9201810185E0B89FF0011124EC517E
:1011E000FD4F4381548170E060E004171507260726
:1011F0003707D0F081E08B0F809339038A1708F40A
:1012000078C080913703109239038F5F8093370342
:1012100090915003992309F46CC0891708F469C0B0
:101220000E94C50310924C030E94F10120915103CA
:10123000213009F007C4A0913A03AA2309F402C49B
:10124000B091380300918C0210918D0220918E0292
:1012500030918F021B012C01201A310A420A530AD5
:101260009201810185E0B89FF0011124EC56FD4FF9
:101270004381548170E060E00417150726073707A3
:1012800008F4E0C381E08B0F809338038A1708F4D9
:1012900054C080913603109238038F5F80933603D9
:1012A00090915503992309F448C0891708F445C063
:1012B0000E94AD0310925103C5C380EA91E00E94E1
:1012C000580489EE91E00E94580487E092E0B4CE81
:1012D00010925A0310923D0310923C038EE192E06B
:1012E0000E94580486E492E00E94580487E092E04D
:1012F00005CF0E94F1016093900270939102809358
:1013000092029093930210913903A5E01A9FF00185
:101310001124EC51FD4F618180816F3F51F40E9497
:10132000DD031F5F10934D038091370380934F03BC
:101330007BCF42810E941F03F4CF0E94F101609392
:101340008C0270938D0280938E0290938F02109185
:101350003803A5E01A9FF0011124EC56FD4F61817E
:1013600080816F3F51F40E94DD031F5F1093520391
:10137000809136038093540365C342810E941F030A
:10138000F4CF853561F490919C03913041F422E0D3
:1013900020939C0380935D0390939D0355C310920B
:1013A0009C0352C3E0919C0311E01E0F10939C0319
:1013B000F0E0E45AFC4F8083143008F4B2C000918E
:1013C0005F0385E0800F181708F4ABC062E0600F80
:1013D0008EE593E00E940A03E02FF0E0E45AFC4F10
:1013E00094818913E9C2143009F497C010915E0307
:1013F00080915A03811103C081E080935A030E94B7
:10140000F1016093560370935703809358039093B0
:101410005903173109F48AC120F5123109F49DC02E
:1014200048F4103109F460C0113109F484C062E05D
:10143000812F65C0153109F4FAC008F00EC11431CE
:10144000B1F763E0053059F480916003813009F011
:10145000C9C080913B03803108F4A7C067E084E1F4
:101460004EC0103209F4CCC178F4183109F480C1AF
:101470001931E9F680913C0390913D03019709F4FD
:1014800097C168E089E13BC0123209F45AC208F4FE
:10149000F6C1103561F663E080E5023081F581E048
:1014A00090916103911101C080E080935B030E94E1
:1014B000F101609356037093570380935803909300
:1014C00059038091600322968FAF229780915B032E
:1014D00023968FAF23979E012F5F3F4F42E0BE01BF
:1014E0006F5B7F4F80E5BFC163E0033039F48091CB
:1014F0003C0390913D03892B29F068E080E10E9434
:10150000DF050BC04091620360916103809160032D
:101510000E941F0380E10E94070610929C03109214
:101520009D0380919C03803408F48EC210929C032A
:1015300010929D0389C263E0013039F480913C032D
:1015400090913D03892B19F068E081E1D8CF80911B
:1015500060030E94DD0381E1DECF0E94C5030E948B
:10156000AD0380913C0390913D030197E1F410920B
:101570004C031092510310923B0310923A031092C5
:1015800039031092380310923703109236031092E9
:101590004E031092530310923503109234031092AD
:1015A0003D0310923C0382E1B6CF689EF001112406
:1015B000EC51FD4F91E09083909161039183909164
:1015C00062039283209163033091640332272327BF
:1015D0003227348323838F5F80933B0380934E03B2
:1015E00084E199CF823009F580913A03803108F087
:1015F00035CF689EF0011124EC56FD4F92E09083A8
:10160000909161039183909162039283209163038F
:1016100030916403322723273227348323838F5F5B
:1016200080933A0380935303DBCF64E018CF10928A
:101630003B03109239031092370310924E0310921D
:10164000350310923A031092380310923603109229
:1016500053031092340385E15ECF63E0013009F05B
:1016600063C01091600380913B03882309F44EC04E
:1016700010923903109237030E94F1016093900297
:1016800070939102809392029093930200934C0383
:10169000109350036091E5028091E4026F3F89F559
:1016A0000E94DD0381E080934D0380933503809198
:1016B0003A038823A1F110923803109236030E9456
:1016C000F10160938C0270938D0280938E0290934F
:1016D0008F0281E08093510310935503609195022E
:1016E000809194026F3FB1F40E94DD0381E080930A
:1016F00052038093340390923D0380923C0386E131
:101700000ACF4091E6020E941F03CCCF109235030E
:10171000512CCDCF409196020E941F03E7CF10922B
:1017200034035110E8CF67E086E1E9CE10924C0314
:10173000109251030E94C5030E94AD0310923B0317
:1017400010923A0310923903109238031092370323
:101750001092360310924E031092530310923503E9
:101760001092340310923D0310923C0387E1D3CED4
:1017700080913C0390913D03019719F068E088E166
:10178000BECE8091510390914C03913031F0813065
:10179000A9F782E08093510305C092E090934C0337
:1017A0008130B9F30E94C5030E94AD0388E1B3CE36
:1017B0001091510380914C03823091F0123009F066
:1017C00060CE81E0809351030E94F10160938C020E
:1017D00070938D0280938E0290938F0289E19BCE4D
:1017E00081E080934C030E94F1016093900270931A
:1017F00091028093920290939302123079F7E1CF95
:1018000087E792E00E946D0DB7010E94E30D94E01E
:10181000660F771F9A95E1F7682B22966FAF229794
:1018200087E792E00E946D0DB7010E94E30D24E06E
:10183000660F771F2A95E1F7682B23966FAF2397E2
:1018400024967FAE2497EAE7F2E0D501872D019038
:101850000D928A95E1F79E012F5F3F4F4BE0BE014D
:101860006F5B7F4F80E30E94BE05482F50E0BE01B2
:101870006F5F7F4F88EA93E00E94FD014ECE80911A
:101880003C0322968FAF229780913F0390914003B3
:10189000813039F0809141038130E9F59091420324
:1018A00082E020913E0323962FAF239724968FAF9B
:1018B000249721E0811101C020E025962FAF2597C4
:1018C00026969FAF269780914603909147038130DB
:1018D00039F080914803813049F59091490382E0C5
:1018E0002091450327962FAF279728968FAF2897EB
:1018F00021E0811101C020E029962FAF29972A9677
:101900009FAF2A979E012F5F3F4F49E0BE016F5B5B
:101910007F4F81E3A8CF80914303813021F49091E0
:10192000440383E0BECF90E080E0BBCF80914A03C8
:10193000813021F490914B0383E0D2CF90E080E09E
:10194000CFCF80914C0322968FAF229780914D0389
:1019500023968FAF239780914E0324968FAF2497C1
:1019600080914F0325968FAF25978091500326963F
:101970008FAF26978091510327968FAF279780913D
:10198000520328968FAF28978091530329968FAFE3
:101990002997809154032A968FAF2A9780915503F7
:1019A0002B968FAF2B979E012F5F3F4F4AE0BE01D2
:1019B0006F5B7F4F82E357CF61E080915E039FCDE5
:1019C0006AE070E080E090E00E94BF01C114D104A1
:1019D00009F44CCB0E946702882309F441CB0E9492
:1019E00000003ECB21E030E04091180150911901F8
:1019F00060911A0170911B0180911C0190911D0151
:101A00000E94100522E030E0409112015091130134
:101A10006091140170911501809116019091170148
:101A20000E94100562E370E080E090E0CDCF1123CA
:101A300009F4B4CB0E94C5030E94AD0310923D038C
:101A400010923C0335E0632E88EA93E00E945B022B
:101A5000892B09F4B5CF88EA93E00E9439025090AF
:101A60009D0351109FCC8A3A09F08BCC90919C0336
:101A7000911195CC91E090939C0380935C03E4CF0B
:101A8000E8EAF3E01382128288EE93E0A0E0B0E08F
:101A900084839583A683B78384E091E091838083D8
:101AA00085EC90E09587848784EC90E09787868723
:101AB00080EC90E0918B808B81EC90E0938B828B1B
:101AC00082EC90E0958B848B86EC90E0978B868BF4
:101AD000118E128E138E148E0895FC01882799277B
:101AE000E89421912032E9F3293010F02E30C8F328
:101AF0002B3241F02D3239F4689404C00E948B0DD2
:101B0000820F911D219120532A30C0F31EF490952D
:101B100081959F4F08957AE0979F902D879F802D04
:101B2000910D11240895052E97FB1EF400940E9438
:101B3000AA0D57FD07D00E94B20D07FC03D04EF44A
:101B40000C94AA0D50954095309521953F4F4F4FDD
:101B50005F4F089590958095709561957F4F8F4F59
:101B60009F4F0895A1E21A2EAA1BBB1BFD010DC0B9
:101B7000AA1FBB1FEE1FFF1FA217B307E407F5073D
:101B800020F0A21BB30BE40BF50B661F771F881F19
:101B9000991F1A9469F760957095809590959B01AF
:101BA000AC01BD01CF010895A29FB001B39FC00158
:101BB000A39F700D811D1124911DB29F700D811D79
:101BC0001124911D089597FB072E16F4009407D059
:101BD00077FD09D00E94FE0D07FC05D03EF49095DC
:101BE00081959F4F0895709561957F4F08950E944C
:101BF000D40DB7FF0895821B930B0895AA1BBB1B3E
:101C000051E107C0AA1FBB1FA617B70710F0A61BFC
:101C1000B70B881F991F5A95A9F780959095BC011D
:101C2000CD010895EE0FFF1F0590F491E02D09946A
:101C3000FB01DC0102C001900D9241505040D8F7E9
:061C40000895F894FFCFA7
:101C4600000000009D02FD012A02EA025B02390241
:101C56004D02090A0B07080E03050602040F0D0ABA
:101C660000434800207C2050574D3A2000414952FD
:101C7600005741544552004F4646000D0A466C75C2
:101C8600696420436F6E74726F6C20537973746548
:101C96006D2056312E300050726F746F636F6C205A
:101CA600696E697469616C697A656400436F6D6D0C
:101CB600616E64206D6F64756C6520696E69746908
:101CC600616C697A6564004F66666C696E65206D45
:101CD6006F646520696E697469616C697A65640010
:101CE60053797374656D20696E697469616C697A7C
:101CF6006564004D6F64653A204F4E4C494E452051
:101D060028537769746368206973204849474829CE
:101D16000057616974696E6720666F7220636F6D24
:101D26006D616E64732E2E2E004D6F64653A204FE2
:101D360046464C494E4520285377697463682069A6
:101D460073204C4F5729004D616E75616C20636F8F
:101D56006E74726F6C20656E61626C6564000D0A4C
:101D66003D3D3D3D3D3D3D3D3D3D3D3D3D3D3D3D9D
:101D76003D3D3D3D3D3D3D3D004D6F64653A204F47
:101D86004E4C494E45004D6F64653A204F46464CD1
:101D9600494E4500486561727462656174207469D4
:101DA6006D656F75742120456D657267656E637923
:101DB6002073746F702100313000666C7569645F42
:041DC6005630000093
:00000001FF
